:020000040800F2
:1000000000000A201DDF0008D5230008D7230008C0
:10001000D9230008DB230008DD23000800000000CE
:10002000000000000000000000000000DF230008C6
:10003000E123000800000000E3230008E523000896
:100040006DDF00086DDF00086DDF00086DDF000860
:100050006DDF00086DDF00086DDF00086DDF000850
:100060006DDF00086DDF00086DDF00086DDF000840
:100070006DDF00086DDF0008ED2300086DDF00086C
:100080006DDF00086DDF00086DDF00086DDF000820
:100090006DDF00086DDF00086DDF00086DDF000810
:1000A0006DDF00086DDF00086DDF00086DDF000800
:1000B0006DDF00086DDF00086DDF00086DDF0008F0
:1000C0006DDF00086DDF00086DDF00086DDF0008E0
:1000D0006DDF00086DDF00086DDF00086DDF0008D0
:1000E0006DDF00086DDF00086DDF00086DDF0008C0
:1000F0006DDF00086DDF00086DDF00080000000004
:100100006DDF0008FD2300086DDF00086DDF0008CB
:100110006DDF00086DDF00080D2400086DDF0008AA
:100120006DDF00086DDF00086DDF00086DDF00087F
:100130006DDF00086DDF00086DDF00086DDF00086F
:100140006DDF00086DDF00086DDF00081D2400086A
:100150006DDF00086DDF00086DDF00086DDF00084F
:100160006DDF00086DDF00086DDF00086DDF00083F
:100170006DDF00086DDF00086DDF00080000000083
:100180006DDF00086DDF00086DDF00086DDF00081F
:100190006DDF00086DDF00080000000000000000B7
:1001A00000000000000000006DDF00086DDF0008A7
:1001B0006DDF00086DDF00086DDF00080000000043
:1001C00010B5054C237833B9044B13B10448AFF391
:1001D00000800123237010BDB00B00200000000040
:1001E0004022010808B5034B1BB103490348AFF394
:1001F000008008BD00000000B40B00204022010870
:1002000081F0004102E000BF83F0004330B54FEAC7
:1002100041044FEA430594EA050F08BF90EA020F34
:100220001FBF54EA000C55EA020C7FEA645C7FEAC7
:10023000655C00F0E2804FEA5454D4EB5555B8BFEA
:100240006D420CDD2C4480EA020281EA030382EA5B
:10025000000083EA010180EA020281EA0303362DED
:1002600088BF30BD11F0004F4FEA01314FF4801CC0
:100270004CEA113102D0404261EB410113F0004FD2
:100280004FEA03334CEA133302D0524263EB430389
:1002900094EA050F00F0A780A4F10104D5F1200E27
:1002A0000DDB02FA0EFC22FA05F2801841F1000182
:1002B00003FA0EF2801843FA05F359410EE0A5F156
:1002C00020050EF1200E012A03FA0EFC28BF4CF087
:1002D000020C43FA05F3C01851EBE37101F000453D
:1002E00007D54FF0000EDCF1000C7EEB00006EEB4A
:1002F0000101B1F5801F1BD3B1F5001F0CD34908D4
:100300005FEA30004FEA3C0C04F101044FEA44522A
:1003100012F5800F80F09A80BCF1004F08BF5FEAB1
:10032000500C50F1000041EB045141EA050130BD91
:100330005FEA4C0C404141EB0101013C28BFB1F5A3
:10034000801FE9D291F0000F04BF01460020B1FAEE
:1003500081F308BF2033A3F10B03B3F120020CDAC1
:100360000C3208DD02F1140CC2F10C0201FA0CF09F
:1003700021FA02F10CE002F11402D8BFC2F1200C04
:1003800001FA02F120FA0CFCDCBF41EA0C019040BA
:10039000E41AA2BF01EB0451294330BD6FEA040403
:1003A0001F3C1CDA0C340EDC04F11404C4F12002EE
:1003B00020FA04F001FA02F340EA030021FA04F300
:1003C00045EA030130BDC4F10C04C4F1200220FA57
:1003D00002F001FA04F340EA0300294630BD21FA95
:1003E00004F0294630BD94F0000F83F4801306BF5B
:1003F00081F480110134013D4EE77FEA645C18BF4F
:100400007FEA655C29D094EA050F08BF90EA020FE5
:1004100005D054EA000C04BF1946104630BD91EADD
:10042000030F1EBF0021002030BD5FEA545C05D1E0
:100430004000494128BF41F0004130BD14F580041F
:100440003CBF01F5801130BD01F0004545F0FE4193
:1004500041F470014FF0000030BD7FEA645C1ABFC8
:10046000194610467FEA655C1CBF0B46024650EAFF
:10047000013406BF52EA033591EA030F41F400212B
:1004800030BD00BF90F0000F04BF0021704730B5B1
:100490004FF4806404F132044FF000054FF0000186
:1004A00050E700BF90F0000F04BF0021704730B547
:1004B0004FF4806404F1320410F0004548BF40421C
:1004C0004FF000013EE700BF42004FEAE2014FEA71
:1004D00031014FEA02701FBF12F07F4393F07F4F4C
:1004E00081F06051704732F07F4208BF704793F04F
:1004F0007F4F04BF41F40021704730B54FF4607462
:1005000001F0004521F000411CE700BF50EA010264
:1005100008BF704730B54FF000050AE050EA01020D
:1005200008BF704730B511F0004502D5404261EB7D
:1005300041014FF4806404F132045FEA915C3FF4BE
:10054000D8AE4FF003025FEADC0C18BF03325FEA5B
:10055000DC0C18BF033202EBDC02C2F1200300FA0C
:1005600003FC20FA02F001FA03FE40EA0E0021FA31
:1005700002F11444BDE600BF80F0004002E000BF7D
:1005800081F0004142001FBF5FEA410392EA030F7E
:100590007FEA226C7FEA236C6AD04FEA1262D2EBC8
:1005A0001363C1BFD218414048404140B8BF5B42CD
:1005B000192B88BF704710F0004F40F4000020F066
:1005C0007F4018BF404211F0004F41F4000121F07C
:1005D0007F4118BF494292EA030F3FD0A2F10102C6
:1005E00041FA03FC10EB0C00C3F1200301FA03F104
:1005F00000F0004302D5494260EB4000B0F5000F27
:1006000013D3B0F1807F06D340084FEA310102F1E5
:100610000102FE2A51D2B1F1004F40EBC25008BF97
:1006200020F0010040EA03007047490040EB000061
:10063000013A28BFB0F5000FEDD2B0FA80FCACF162
:10064000080CB2EB0C0200FA0CF0AABF00EBC2508F
:1006500052421843BCBFD0401843704792F0000F7D
:1006600081F4000106BF80F400000132013BB5E7D0
:100670004FEA41037FEA226C18BF7FEA236C21D046
:1006800092EA030F04D092F0000F08BF08467047AB
:1006900090EA010F1CBF0020704712F07F4F04D179
:1006A000400028BF40F00040704712F100723CBF8C
:1006B00000F50000704700F0004343F0FE4040F4B6
:1006C000000070477FEA226216BF08467FEA236374
:1006D0000146420206BF5FEA412390EA010F40F45F
:1006E000800070474FF0000304E000BF10F00043AB
:1006F00048BF40425FEA000C08BF704743F0964392
:1007000001464FF000001CE050EA010208BF7047AC
:100710004FF000030AE000BF50EA010208BF704733
:1007200011F0004302D5404261EB41015FEA010C48
:1007300002BF84460146002043F0B64308BFA3F140
:100740008053A3F50003BCFA8CF2083AA3EBC25322
:1007500010DB01FA02FC634400FA02FCC2F1200241
:10076000BCF1004F20FA02F243EB020008BF20F078
:100770000100704702F1200201FA02FCC2F12002DE
:1007800050EA4C0021FA02F243EB020008BF20EAD3
:10079000DC7070474FF0FF0C1CEAD0521EBF1CEA01
:1007A000D15392EA0C0F93EA0C0F6FD01A4480EAEF
:1007B000010C400218BF5FEA41211ED04FF00063D8
:1007C00043EA501043EA5111A0FB01310CF0004004
:1007D000B1F5000F3EBF490041EAD3715B0040EA2A
:1007E000010062F17F02FD2A1DD8B3F1004F40EBFA
:1007F000C25008BF20F00100704790F0000F0CF0CD
:10080000004C08BF49024CEA502040EA51207F3A90
:10081000C2BFD2F1FF0340EAC250704740F400006B
:100820004FF00003013A5DDC12F1190FDCBF00F05C
:1008300000407047C2F10002410021FA02F1C2F10A
:10084000200200FA02FC5FEA310040F1000053EAA6
:100850004C0308BF20EADC70704792F0000F00F0F4
:10086000004C02BF400010F4000F013AF9D040EAFA
:100870000C0093F0000F01F0004C02BF490011F48E
:10088000000F013BF9D041EA0C018FE70CEAD1538C
:1008900092EA0C0F18BF93EA0C0F0AD030F0004C0C
:1008A00018BF31F0004CD8D180EA010000F00040C0
:1008B000704790F0000F17BF90F0004F084691F07E
:1008C000000F91F0004F14D092EA0C0F01D14202B8
:1008D0000FD193EA0C0F03D14B0218BF084608D181
:1008E00080EA010000F0004040F0FE4040F40000CB
:1008F000704740F0FE4040F4400070474FF0FF0C5E
:100900001CEAD0521EBF1CEAD15392EA0C0F93EAA4
:100910000C0F69D0A2EB030280EA010C49024FEAF6
:10092000402037D04FF0805343EA111143EA1013AF
:100930000CF000408B4238BF5B0042F17D024FF467
:10094000000C8B4224BF5B1A40EA0C00B3EB510F42
:1009500024BFA3EB510340EA5C00B3EB910F24BF2B
:10096000A3EB910340EA9C00B3EBD10F24BFA3EBB0
:10097000D10340EADC001B0118BF5FEA1C1CE0D178
:10098000FD2A3FF650AF8B4240EBC25008BF20F02B
:10099000010070470CF0004C4CEA50207F32C2BF7F
:1009A000D2F1FF0340EAC250704740F400004FF01C
:1009B0000003013A37E792F0000F00F0004C02BF4D
:1009C000400010F4000F013AF9D040EA0C0093F017
:1009D000000F01F0004C02BF490011F4000F013B71
:1009E000F9D041EA0C0195E70CEAD15392EA0C0FD9
:1009F00008D142027FF47DAF93EA0C0F7FF470AF11
:100A0000084676E793EA0C0F04D14B023FF44CAF53
:100A100008466EE730F0004C18BF31F0004CCAD1E8
:100A200030F000427FF45CAF31F000437FF43CAF24
:100A30005FE700BF4FF0FF3C06E000BF4FF0010C46
:100A400002E000BF4FF0010C4DF804CD4FEA400228
:100A50004FEA41037FEA226C18BF7FEA236C11D072
:100A600001B052EA530C18BF90EA010F58BFB2EB25
:100A7000030088BFC81738BF6FEAE17018BF40F0A5
:100A8000010070477FEA226C02D15FEA402C05D159
:100A90007FEA236CE4D15FEA412CE1D05DF8040BDE
:100AA000704700BF844608466146FFE70FB5FFF771
:100AB000C9FF002848BF10F1000F0FBD4DF808ED29
:100AC000FFF7F4FF0CBF012000205DF808FB00BF1A
:100AD0004DF808EDFFF7EAFF34BF012000205DF874
:100AE00008FB00BF4DF808EDFFF7E0FF94BF0120C1
:100AF00000205DF808FB00BF4DF808EDFFF7D2FFBE
:100B000094BF012000205DF808FB00BF4DF808ED00
:100B1000FFF7C8FF34BF012000205DF808FB00BFCD
:100B200053B94AB9002908BF00281CBF4FF0FF3154
:100B30004FF0FF3000F06CB9ADF1080C6DE904CE58
:100B400000F006F8DDF804E0DDE9022304B07047A8
:100B50002DE9F047089E0D4604468E46002B40F0D6
:100B600082808A42174646D9B2FA82F24AB1C2F16D
:100B7000200105FA02F320FA01F1974041EA030E41
:100B800094404FEA1748230CBEFBF8FCB9B208FBAF
:100B90001CEE43EA0E430CFB01F098420AD9FB1805
:100BA0000CF1FF3580F01681984240F21381ACF1D0
:100BB000020C3B441B1AA4B2B3FBF8F008FB103341
:100BC00044EA034400FB01F1A14209D93C1900F1B8
:100BD000FF3380F00181A14240F2FE8002383C44A4
:100BE000641A40EA0C4000211EB1D4400023C6E93B
:100BF0000043BDE8F08702B9FFDEB2FA82F2002AB4
:100C00004FD1CB1B4FEA174E1FFA87F80121B3FBD8
:100C1000FEFC250C0EFB1C3345EA034508FB0CF3D8
:100C2000AB4207D97D190CF1FF3002D2AB4200F282
:100C3000E7808446ED1AA3B2B5FBFEF00EFB10551B
:100C400043EA054408FB00F8A04507D93C1900F128
:100C5000FF3302D2A04500F2D7801846A4EB080467
:100C600040EA0C40C0E78B4208D9002E00F0AF806C
:100C70000021C6E900050846BDE8F087B3FA83F114
:100C800000294BD1AB4202D3824200F2B780841AD2
:100C900065EB030301209E46002EAAD0C6E9004E54
:100CA000A7E7C2F1200C01FA02F3974020FA0CF0FA
:100CB0004FEA174E21FA0CFC1843BCFBFEF1050C61
:100CC0000EFB11CC1FFA87F845EA0C4501FB08F32F
:100CD000AB4204FA02F409D97D1901F1FF3C80F01E
:100CE0008B80AB4240F2888002393D44EB1A85B2DA
:100CF000B3FBFEF00EFB103345EA034500FB08F39F
:100D0000AB4207D97D1900F1FF3C71D2AB426FD9DC
:100D100002383D44EB1A40EA014178E7C1F1200C6A
:100D20008B4022FA0CF71F4320FA0CF405FA01F36A
:100D30004FEA174E25FA0CF51C43230CB5FBFEF9C0
:100D40001FFA87F80EFB195543EA054509FB08FA17
:100D5000AA4502FA01F200FA01F308D97D1909F156
:100D6000FF3047D2AA4545D9A9F102093D44A5EB78
:100D70000A05A4B2B5FBFEF00EFB105544EA05448B
:100D800000FB08F8A04507D93C1900F1FF352DD22A
:100D9000A0452BD902383C4440EA0940A4EB0804A2
:100DA000A0FB02894C45C6464D4619D316D05EB10C
:100DB000B3EB0E0264EB050404FA0CFCCA404CEAE7
:100DC0000202CC40C6E900240021BDE8F08731468C
:100DD00030460EE7AC46EDE6184601E74345E6D25D
:100DE000B8EB020E69EB07050138E0E72846D3E7C8
:100DF00060468FE78146BAE7614677E708464BE7EA
:100E0000ACF1020C3D4415E702383C4426E700BF34
:100E1000704700BF0000000000000000000000005C
:100E200000000000000000000000000000000000C2
:100E300000000000000000000000000000000000B2
:100E400090F800F06DE9024520F007016FF0000C0A
:100E500010F0070491F820F040F049804FF00004B2
:100E60006FF00700D1E9002391F840F000F108008D
:100E700082FA4CF2A4FA8CF283FA4CF3A2FA8CF3C5
:100E80004BBBD1E9022382FA4CF200F10800A4FA2C
:100E90008CF283FA4CF3A2FA8CF3E3B9D1E9042380
:100EA00082FA4CF200F10800A4FA8CF283FA4CF3B7
:100EB000A2FA8CF37BB9D1E9062301F1200182FA71
:100EC0004CF200F10800A4FA8CF283FA4CF3A2FA77
:100ED0008CF3002BC6D0002A04BF04301A4612BA85
:100EE000B2FA82F2FDE8024500EBD2007047D1E988
:100EF000002304F00305C4F100004FEAC50514F017
:100F0000040F91F840F00CFA05F562EA05021CBFE7
:100F100063EA050362464FF00004A9E70000000001
:100F200001F0FF01102A2BDB10F0070F08D010F89A
:100F3000013B013A8B422DD010F0070F42B3F6D19E
:100F4000F0B441EA012141EA014122F007047FF0B7
:100F500000070023F0E80256083C85EA010586EA0E
:100F6000010685FA47F5A3FA87F586FA47F6A5FA4A
:100F700087F68EB9EED1F0BC01F0FF0102F0070256
:100F800032B110F8013B013A83EA010313B1F8D101
:100F90000020704701387047002D06BF35460338E2
:100FA000073815F0010F07D1013015F4807F02BF1B
:100FB000013015F4C03F0130F0BC0138704700BF6C
:100FC000844641EA000313F003036DD1403A41D354
:100FD00051F8043B40F8043B51F8043B40F8043B13
:100FE00051F8043B40F8043B51F8043B40F8043B03
:100FF00051F8043B40F8043B51F8043B40F8043BF3
:1010000051F8043B40F8043B51F8043B40F8043BE2
:1010100051F8043B40F8043B51F8043B40F8043BD2
:1010200051F8043B40F8043B51F8043B40F8043BC2
:1010300051F8043B40F8043B51F8043B40F8043BB2
:1010400051F8043B40F8043B51F8043B40F8043BA2
:10105000403ABDD2303211D351F8043B40F8043B42
:1010600051F8043B40F8043B51F8043B40F8043B82
:1010700051F8043B40F8043B103AEDD20C3205D352
:1010800051F8043B40F8043B043AF9D2043208D04A
:10109000D2071CBF11F8013B00F8013B01D30B88BC
:1010A00003806046704700BF082A13D38B078DD09A
:1010B00010F003038AD0C3F10403D21ADB071CBF6C
:1010C00011F8013B00F8013B80D331F8023B20F8D6
:1010D000023B7BE7043AD9D3013A11F8013B00F80F
:1010E000013BF9D20B7803704B7843708B78837097
:1010F0006046704770B54FF0FF0C4CF4E06C1CEA92
:1011000011541DBF1CEA135594EA0C0F95EA0C0FFD
:1011100000F0DEF82C4481EA030621EA4C5123EA70
:101120004C5350EA013518BF52EA033541F480119F
:1011300043F4801338D0A0FB02CE4FF00005E1FB52
:1011400002E506F00042E0FB03E54FF00006E1FB9C
:1011500003569CF0000F18BF4EF0010EA4F1FF04DF
:10116000B6F5007F64F5407404D25FEA4E0E6D411F
:1011700046EB060642EAC62141EA55514FEAC52030
:1011800040EA5E504FEACE2EB4F1FD0C88BFBCF5AC
:10119000E06F1ED8BEF1004F08BF5FEA500E50F15D
:1011A000000041EB045170BD06F0004646EA010123
:1011B00040EA020081EA0301B4EB5C04C2BFD4EB55
:1011C0000C0541EA045170BD41F480114FF0000E4E
:1011D000013C00F3AB8014F1360FDEBF002001F0BC
:1011E000004170BDC4F10004203C35DA0C341BDC36
:1011F00004F11404C4F1200500FA05F320FA04F008
:1012000001FA05F240EA020001F0004221F000413B
:1012100010EBD37021FA04F642EB06015EEA430EAE
:1012200008BF20EAD37070BDC4F10C04C4F12005DE
:1012300000FA04F320FA05F001FA04F240EA020091
:1012400001F0004110EBD37041F100015EEA430E62
:1012500008BF20EAD37070BDC4F1200500FA05F282
:101260004EEA020E20FA04F301FA05F243EA020301
:1012700021FA04F001F0004121FA04F220EA020010
:1012800000EBD3705EEA430E08BF20EAD37070BD56
:1012900094F0000F0FD101F00046400041EB010136
:1012A00011F4801F08BF013CF7D041EA060195F018
:1012B000000F18BF704703F00046520043EB0303D2
:1012C00013F4801F08BF013DF7D043EA06037047BF
:1012D00094EA0C0F0CEA135518BF95EA0C0F0CD0CA
:1012E00050EA410618BF52EA4306D1D181EA030110
:1012F00001F000414FF0000070BD50EA410606BF0A
:101300001046194652EA430619D094EA0C0F02D14E
:1013100050EA013613D195EA0C0F05D152EA033693
:101320001CBF104619460AD181EA030101F00041B1
:1013300041F0FE4141F470014FF0000070BD41F0FA
:10134000FE4141F4780170BD70B54FF0FF0C4CF4D4
:10135000E06C1CEA11541DBF1CEA135594EA0C0FF3
:1013600095EA0C0F00F0A7F8A4EB050481EA030E40
:1013700052EA03354FEA013100F088804FEA033327
:101380004FF0805545EA131343EA12634FEA0222F5
:1013900045EA111545EA10654FEA00260EF00041B6
:1013A0009D4208BF964244F1FD0404F5407402D208
:1013B0005B084FEA3202B61A65EB03055B084FEA99
:1013C00032024FF480104FF4002CB6EB020E75EB96
:1013D000030E22BFB61A754640EA0C005B084FEABE
:1013E0003202B6EB020E75EB030E22BFB61A75463B
:1013F00040EA5C005B084FEA3202B6EB020E75EB86
:10140000030E22BFB61A754640EA9C005B084FEAFD
:101410003202B6EB020E75EB030E22BFB61A75460A
:1014200040EADC0055EA060E18D04FEA051545EAF9
:1014300016754FEA06164FEAC30343EA52734FEAA2
:10144000C2025FEA1C1CC0D111F4801F0BD141EA1B
:1014500000014FF000004FF0004CB6E711F4801F80
:1014600004BF01430020B4F1FD0C88BFBCF5E06F60
:101470003FF6AFAEB5EB030C04BFB6EB020C5FEA70
:10148000500C50F1000041EB045170BD0EF0004EC5
:101490004EEA113114EB5C04C2BFD4EB0C0541EAF7
:1014A000045170BD41F480114FF0000E013C90E6F4
:1014B00045EA060E8DE60CEA135594EA0C0F08BFB8
:1014C00095EA0C0F3FF43BAF94EA0C0F0AD150EAB7
:1014D00001347FF434AF95EA0C0F7FF425AF10464A
:1014E00019462CE795EA0C0F06D152EA03353FF472
:1014F000FDAE1046194622E750EA410618BF52EAEF
:1015000043067FF4C5AE50EA41047FF40DAF52EAC2
:1015100043057FF4EBAE12E74FF0FF3C06E000BF5F
:101520004FF0010C02E000BF4FF0010C4DF804CD6C
:101530004FEA410C7FEA6C5C4FEA430C18BF7FEA2C
:101540006C5C1BD001B050EA410C0CBF52EA430C5A
:1015500091EA030F02BF90EA020F0020704710F1DA
:10156000000F91EA030F58BF994208BF90422CBF69
:10157000D8176FEAE37040F0010070474FEA410C62
:101580007FEA6C5C02D150EA013C07D14FEA430C80
:101590007FEA6C5CD6D152EA033CD3D05DF8040BF1
:1015A000704700BF8446104662468C461946634623
:1015B00000E000BF01B5FFF7B7FF002848BF10F1FA
:1015C000000F01BD4DF808EDFFF7F4FF0CBF01203F
:1015D00000205DF808FB00BF4DF808EDFFF7EAFFBB
:1015E00034BF012000205DF808FB00BF4DF808ED76
:1015F000FFF7E0FF94BF012000205DF808FB00BF6B
:101600004DF808EDFFF7CEFF94BF012000205DF8F4
:1016100008FB00BF4DF808EDFFF7C4FF34BF012001
:1016200000205DF808FB00BF4FEA410C7FEA6C5CCC
:1016300002D150EA013C0AD14FEA430C7FEA6C5CCC
:1016400002D152EA033C02D14FF0000070474FF044
:10165000010070474FEA410212F5001215D211D570
:101660006FF47873B3EB625212D94FEAC12343F09F
:10167000004343EA505311F0004F23FA02F018BF21
:10168000404270474FF00000704750EA013005D1EA
:1016900011F0004008BF6FF0004070474FF00000AD
:1016A000704700BF00B587B00023009301930293F9
:1016B0000393049305931A481A4A026043608360B7
:1016C000C360036104224261037601224276C26153
:1016D00080F820308362C36280F830304FF480524B
:1016E000426380F8383002F07DF898B90E4B0093D1
:1016F00006230193022302937F230393042304937D
:10170000002305936946064802F05CF928B907B042
:101710005DF804FB00F0CAFAE8E700F0C7FAF6E764
:10172000CC0B0020000004500001802130B589B0AE
:1017300000230393049305930693079302681C4BBD
:101740009A4201D009B030BD03F17043A3F5F833DC
:10175000DA6C42F40052DA64DA6C02F4005200925D
:10176000009ADA6C42F00402DA64DA6C02F00402E5
:101770000192019ADA6C42F00102DA64DB6C03F048
:1017800001030293029B102303930B25049500246D
:10179000059403A9074802F055FE08230393049516
:1017A000059403A94FF0904002F04CFECAE700BF39
:1017B000000004500008004808B51C481C4B03609A
:1017C000002343600123037243724FF08042C261E1
:1017D000C0220262436202F06DFCF0B91548164B5C
:1017E00003600023037183600222C2604FF48052C1
:1017F000026143618361C3610362436201228262C9
:10180000C3620723036302F0D1FB48B901221146EA
:10181000064802F0E3FC30B908BD00F047FADDE706
:1018200000F044FAF2E700F041FAF5E7740C00200A
:10183000006101403C0C00200060014010B582B006
:1018400004461F4B1B6843B91E490A6801320A60EF
:10185000012A08D001331A4A136022681A4B9A42AF
:101860000CD002B010BD194A116E41F080711166A2
:10187000126E02F080720192019AEBE7144803F5B0
:101880001F43443303605623436000238360C360D7
:10189000802303614FF4007343614FF4006383615D
:1018A0002023C3614FF40053036202F0FDFC20B912
:1018B000074BE362A3629C62D3E700F0F7F9F7E716
:1018C000340C0020380C0020006101400010024060
:1018D000C80C00200E4B1B68CBB90E490A680132B8
:1018E0000A60012A03D00133094A1360704782B0AD
:1018F000094A116E41F080711166126E02F0807219
:101900000192019A0133024A136002B07047704796
:10191000340C0020380C00200010024000B583B0C9
:101920000E4B9A6C42F004029A649A6C02F0040224
:101930000092009A9A6C42F001029A649B6C03F048
:1019400001030193019B002211460E2002F0AEFA22
:101950000E2002F0DFFA03B05DF804FB0010024035
:101960002DE9F04F8FB0002409940A940B940C9445
:101970000D94844DEB6C43F00203EB64EB6C03F0CD
:1019800002030193019BEB6C43F00803EB64EB6CE7
:1019900003F008030293029BEB6C43F00403EB6437
:1019A000EB6C03F004030393039BEB6C43F0100315
:1019B000EB64EB6C03F010030493049BEB6C43F0BB
:1019C0000103EB64EB6C03F001030593059BEB6CE7
:1019D00043F02003EB64EB6C03F020030693069BBB
:1019E000EB6C43F04003EB64EB6C03F040030793B4
:1019F000079B04F089F8EB6C43F08003EB64EB6C1D
:101A000003F080030893089B01224FF400414FF03C
:101A1000904002F094FEDFF88481012241F63041CB
:101A2000404602F08CFEDFF878B122460521584688
:101A300002F085FE544D01224FF48061284602F0E9
:101A40007EFE01228021584602F079FE22461021B6
:101A5000284602F074FEDFF84C9122464FF4004114
:101A6000484602F06CFE48230993484E0A960B94B0
:101A700009A9404602F0E6FC6023099302230A9379
:101A80000B944FF0030ACDF830A007230D9309A95A
:101A90003F4802F0D7FC4FF40043099311230A9307
:101AA0000B94CDF830A009A94FF0904002F0CAFC89
:101AB0003023099301270A970B940C9409A94046F7
:101AC00002F0C0FC852309930A970B940C9409A992
:101AD000584602F0B7FC4FF4826309930A970B94BF
:101AE0000C9409A9284602F0ADFC082309930A9436
:101AF0000B9409A9284602F0A5FC4FF46043099312
:101B00000A960B9409A9224802F09CFC4FF4E0537A
:101B1000099311230A930B94CDF830A009A94046EC
:101B200002F090FC4FF4004309930A970B940C9435
:101B300009A9484602F086FC202309930A960B94D3
:101B400009A9144802F07EFC042309930A960B9419
:101B500009A94FF0904002F075FC4FF480530993AF
:101B60000A940B9409A9484602F06CFC02230993DD
:101B7000094B0A930B9409A9284602F063FC0FB0A5
:101B8000BDE8F08F0010024000180048000011105E
:101B9000000C004800080048000021100010004818
:101BA000001400480004004808B51248124B0360B6
:101BB000124B4360002383600122C26003614361D2
:101BC0008361C361036202F02BFF50B90021094811
:101BD00003F04FF940B90021064803F078F930B915
:101BE00008BD00F063F8F1E700F060F8F3E700F0FB
:101BF0005DF8F5E7280D0020005C0040DB3FB000F9
:101C000010B588B0002303930493059306930793BC
:101C10000268154B9A4201D008B010BD134CE36C1A
:101C200043F04003E364E36C03F040030193019B42
:101C300003F06AFF4FF4C07303931223049301234C
:101C40000593032306930423079303A9084802F08E
:101C5000F9FBA36D43F40003A365A36D03F4000334
:101C60000293029BD8E700BF005C004000100240D6
:101C70000018004802680A4B9A4200D0704710B51D
:101C8000084A936D23F400039365074C4FF4807169
:101C9000204602F0B5FC8021204602F0B1FC10BDC8
:101CA000005C0040001002400018004872B6FEE7D9
:101CB00010B5BEB0442200212DA80CF04DFC00242C
:101CC000289429942A942B942C949C22214601A890
:101CD0000CF042FC204603F089FE002853D103F0AB
:101CE0006BFE2D4AD2F8903023F01803C2F89030E2
:101CF00025232D934FF480332E9301232F93369376
:101D00000223379303223892042239923C223A92DA
:101D100005223B923C933D932DA803F0D7FF00286A
:101D200033D10F2328930323299300232A932B9342
:101D30002C93052128A804F011FB40BB174B0193FD
:101D400000231093169318934FF080522192229300
:101D50004FF4807227921E934FF480431F93032306
:101D60000293052303936023049302230593042322
:101D7000069307934FF08073089301A804F016FEB2
:101D800038B93EB010BDFFF791FFFFF78FFFFFF7A7
:101D90008DFFFFF78BFF00BF0010024041610B0079
:101DA00070B5ACB001F0E8FCFFF782FFFFF7D8FD9B
:101DB000FFF7B4FDFFF776FCFFF7FEFCFFF7F4FE3C
:101DC00000F0D8F800F030F900F0BEF900F0E4F9C6
:101DD00000F008FA00F060FB00F096FB00F0BCFB9E
:101DE00008F030FE0BF0FEFB00F01EFCFF230C227F
:101DF0005349544807F005FC0022534953480BF05F
:101E0000A7F8002840F08E80FF230F2250494D484C
:101E100007F0F7FB0A224F494F480BF0C7F800289C
:101E200040F08780FF231A224C49464807F0E9FB1F
:101E300013AC4B4D0FCD0FC40FCD0FC42B682360D7
:101E400013A8FEF7FDFF0246434C0CAB13A9204636
:101E50000BF0C8F920460BF011FB3F480BF00EFBCE
:101E6000012100200BF09EFF042100200BF09AFFBF
:101E7000022101200BF096FF3A4C00220EA92046C9
:101E800005F080FE00220DA9204605F0A1FE09AA5A
:101E9000012100200CF016F80AAA042100200CF001
:101EA00011F80BAA022101200CF00CF89DF8384023
:101EB0009DF839509DF83A600B98FEF705FBCDE987
:101EC00006010A98FEF700FBCDE904010998FEF728
:101ED000FBFACDE9020100962B462246224913A8BF
:101EE0000CF0A8FB13A8FEF7ABFFFF2382B213A9E7
:101EF000144807F086FB184C3222164920460BF096
:101F000055F813A8FEF79CFF02460CAB13A9204618
:101F10000BF068F920460BF0B1FA41F2883001F07D
:101F20004DFCA9E7FF2313221049064807F069FB7F
:101F300070E7FF231E220E49024807F062FB8CE780
:101F4000582201082C100020981500203411002080
:101F500064220108882201086813002094220108E5
:101F6000B0220108740D0020F42201087422010837
:101F7000D422010800B587B0002301930293039394
:101F80000493059300931D481D4A026043607F221D
:101F90008260FF22C260036143618361C36105F017
:101FA000D9FC10BB00228DF804208DF805208DF897
:101FB00006200492059201A9104805F023FDB8B946
:101FC00002238DF8003004238DF8013003238DF8AF
:101FD000023014238DF8033000226946074805F0CB
:101FE00075FD40B907B05DF804FBFFF75FFED9E768
:101FF000FFF75CFEE4E7FFF759FEF3E7740D0020FE
:10200000002800400268064B9A4200D07047054AFB
:10201000D2F8903043F40043C2F89030F6E700BFA6
:102020000028004000100240064B074A1A600022B8
:102030005A609A604FF48041D9601A615A61012256
:102040009A617047980D0020002406502DE9F04356
:102050008BB00023059306930793089309930268B6
:10206000344B9A4202D00BB0BDE8F083324BDA6CAD
:1020700042F48002DA64DA6C02F480020192019A7E
:10208000DA6C42F00202DA64DA6C02F002020292C6
:10209000029ADA6C42F00402DA64DA6C02F00402AA
:1020A0000392039ADA6C42F00802DA64DB6C03F004
:1020B00008030493049B4FF440730593022606968D
:1020C00000240794032508954FF00808CDF82480D4
:1020D00005A91A4802F0B6F94FF4F853059306968D
:1020E000079408954FF00C09CDF82490144F05A9DA
:1020F000384602F0A7F9042305930696079408953D
:10210000CDF8249005A90F4802F09CF9C02305934F
:10211000069607940895CDF8248005A9384602F064
:1021200091F922462146312001F0C0FE312001F014
:10213000F1FE98E700240650001002400004004819
:1021400000080048000C004808B51148114B036016
:102150004FF482734360002383604FF4E062C260F7
:1021600002220261012242614FF400728261182250
:10217000C2610362436283620722C26203634363F4
:1021800006F0F0FC00B908BDFFF790FDFBE700BFCB
:10219000180E00200030014008B51048104B0360B5
:1021A0004FF482734360002383604FF4E062C260A7
:1021B0000361012242614FF4007282613022C261E8
:1021C0000362436283620722C2620363436306F0D1
:1021D000C9FC00B908BDFFF769FDFBE77C0E0020D4
:1021E0000038004008B51148114B03604FF482736A
:1021F0004360002383604FF4E062C2600222026108
:10220000012242614FF4007282611822C2610362AE
:10221000436283620722C2620363436306F0A2FC47
:1022200000B908BDFFF742FDFBE700BFE00E00204C
:10223000003C0040F0B58DB000230793089309934C
:102240000A930B9303684F4A934207D04E4A934236
:1022500034D04E4A934266D00DB0F0BD4C4B1A6E4E
:1022600042F480521A661A6E02F480520092009A6A
:10227000DA6C42F01002DA64DB6C03F010030193B5
:10228000019B4FF4005307930227089701230993FA
:1022900003260A9605250B953E4C07A9204602F019
:1022A000D1F84FF4404307930897002309930A9607
:1022B0000B9507A9204602F0C5F8CDE7344B9A6D7F
:1022C00042F480429A659A6D02F480420292029A28
:1022D000DA6C42F00802DA64DA6C02F00802039267
:1022E000039ADA6C42F00402DA64DB6C03F0040354
:1022F0000493049B0A230793022708970026099654
:1023000003250A9505240B9407A9234802F09AF89F
:1023100008230793089709960A950B9407A91F4865
:1023200002F090F898E71A4B9A6D42F400429A65D1
:102330009A6D02F400420592059ADA6C42F00202AC
:10234000DA64DB6C03F002030693069B30230793E9
:10235000022708970023099303260A9606250B9562
:102360000F4C07A9204602F06DF808230793089741
:10237000012309930A960B9507A9204602F062F8FB
:102380006AE700BF0030014000380040003C0040D8
:102390000010024000100048000C004800080048EF
:1023A0000004004882B00A4B1A6E42F001021A661D
:1023B0001A6E02F001020092009A9A6D42F0805269
:1023C0009A659B6D03F080530193019B02B07047A7
:1023D00000100240FEE7FEE7FEE7FEE7FEE770477B
:1023E0007047704708B501F0D7F908BD08B5024835
:1023F00001F0C6FF08BD00BFC80C002008B50248A8
:1024000005F04AFF08BD00BF980D002008B502483E
:1024100006F049FC08BD00BF940F002008B5024833
:1024200002F0D8FE08BD00BFB02A002008B5034660
:102430000B4A126842B10A4A106803446A46934242
:1024400006D8074A136008BD054A06491160F2E73D
:102450000BF08EFD0C2303604FF0FF30F3E700BF5D
:10246000440F0020C03100200A4B1A6842F00102DC
:102470001A60002199601A6822F0A85222F41022F2
:102480001A604FF48052DA601A6822F480221A60CF
:10249000996170470010024000B589B00023049391
:1024A00005930693079301930293039315484FF006
:1024B000804202607722426083604FF0FF32C26048
:1024C0000361836106F020FD90B94FF480530493BB
:1024D00004A90C4806F054FD68B900230193039346
:1024E00001A9084806F0BAFD40B909B05DF804FB3F
:1024F000FFF7DCFBE9E7FFF7D9FBEEE7FFF7D6FBD9
:10250000F3E700BF480F002000B585B0002301931A
:10251000029303930E480F4A026077224260836061
:102520004FF47A72C260836106F0EEFC50B900236A
:102530000193039301A9064806F090FD28B905B060
:102540005DF804FBFFF7B2FBF1E7FFF7AFFBF6E73F
:10255000940F00200010004000B585B000230193C7
:10256000029303930E480F4A026077224260836011
:102570004FF6FF72C260836106F0C6FC50B90023BB
:102580000193039301A9064806F068FD28B905B038
:102590005DF804FBFFF78AFBF1E7FFF787FBF6E73F
:1025A000E00F00200014004000B585B00368B3F1CF
:1025B000804F08D0194A934211D0194A934221D032
:1025C00005B05DF804FB03F504339A6D42F0010297
:1025D0009A659B6D03F001030193019BF0E7114B9A
:1025E0009A6D42F010029A659B6D03F010030293FE
:1025F000029B00221146362001F058FC362001F0E3
:1026000089FCDDE7074B9A6D42F020029A659B6DCD
:1026100003F020030393039BD2E700BF00100040A8
:10262000001400400010024008B51748174B036023
:102630004FF4E133436000238360C36003610C22E5
:1026400042618361C36103624362836207F082F87F
:1026500070B900210C4807F0F6F860B900210A486B
:1026600007F016F950B9084807F0CEF848B908BD88
:10267000FFF71CFBEDE7FFF719FBEFE7FFF716FB92
:10268000F1E7FFF713FBF2E72C10002000380140C0
:1026900000B589B000230393049305930693079331
:1026A0000268154B9A4202D009B05DF804FB03F5AD
:1026B00058431A6E42F480421A661A6E02F480423F
:1026C0000192019ADA6C42F00102DA64DB6C03F0E9
:1026D00001030293029B4FF4C0630393022304930C
:1026E00000230593032306930723079303A94FF0C1
:1026F000904001F0A7FED7E70038014001238B701E
:10270000002048700B70C870024B4B608B60002338
:10271000CB607047000048412DE9F84304460D4660
:10272000D0F80C90466831464846FDF729FF294607
:10273000FEF730F80546A76839463046FEF72AF816
:102740000646D4F8008041464846FEF723F8014685
:102750003046FDF715FF01462846FDF713FF0446F6
:1027600041463846FDF70CFF01462046FEF7C6F805
:10277000BDE8F88310B584682CB9446941F0800144
:10278000007BA04710BD446941F04001007BA04799
:10279000F8E710B584682CB9046941F08001007B2A
:1027A000A04710BD046941F04001007BA047F8E755
:1027B00090F82930012B12D010B5044690F82A3039
:1027C00023B1012384F82930002010BD01211C30E1
:1027D00000F02DFA0028F4D04FF0FF30F5E700208C
:1027E000704790F829308BB110B5044690F82A3024
:1027F0001BB1002084F8290010BD00211C3000F01E
:1028000016FA0028F5D04FF0FF30F5E700207047AA
:1028100090F82A30012B12D010B5044690F82930D8
:1028200023B1012384F82A30002010BD01211C307F
:1028300000F0FDF90028F4D04FF0FF30F5E700205C
:10284000704790F82A308BB110B5044690F82930C3
:102850001BB1002084F82A0010BD00211C3000F0BC
:10286000E6F90028F5D04FF0FF30F5E7002070477B
:1028700010B5044690F82830012B03D0002084F8CE
:10288000280010BDFFF7ADFF38B92046FFF7D9FF8C
:102890000028F3D04FF0FF30F3E74FF0FF30F0E7C0
:1028A00038B505460C464FF07E512046FEF71AF922
:1028B00030B909492046FEF715F940B1022100E080
:1028C000012105F11C0000F035F910B938BD0321D4
:1028D000F7E74FF0FF30F9E70000E04038B5044675
:1028E00000F11C050021284600F0A1F958B901218A
:1028F000284600F05AF948B94FF07E512046FFF7BC
:10290000CFFF30B938BD4FF0FF30FBE74FF0FF305D
:10291000F8E74FF0FF30F5E710B5044690F828309F
:1029200023B1012384F82830002010BDFFF7D6FF23
:102930000028F6D04FF0FF30F7E708B5FFF7B0FFFB
:1029400008BD08B5FFF7ACFF08BD08B51C3000F0A6
:1029500067F900B908BD4FF0FF30FBE710B582B052
:102960000C460DF107011C3000F0FDF8A8B99DF8E8
:102970000730032B14D8DFE803F002060A0D00230A
:10298000236002B010BD4FF07E532360F9E7064B81
:102990002360F6E7054B2360F3E74FF0FF30F0E7E5
:1029A0004FF0FF30EDE700BF0000E040000048417D
:1029B00008B5FFF7D3FF08BD08B5FFF7CFFF08BD87
:1029C00030B587B00D4600F11C0401A9204600F087
:1029D000BFF988BB02A9204600F042F978BB03A9E1
:1029E000204600F0CBF968BB04A9204600F04EF960
:1029F00058BB0023ADF8143005A9204600F0EEF8CE
:102A0000044628BBBDF91400FDF770FE014601A87D
:102A1000FFF782FE28600021FEF75AF848B90E49F8
:102A20002868FEF773F808B10B4B2B60204607B0FF
:102A300030BD00232B60F2E74FF0FF34F6E74FF094
:102A4000FF34F3E74FF0FF34F0E74FF0FF34EDE7EA
:102A50004FF0FF34EAE700BF0000C84230B587B04E
:102A60000D4600F11C0401A9204600F09DF918BB99
:102A700002A9204600F020F908BB03A9204600F077
:102A8000A9F9F8B904A9204600F03CF9E8B90023F7
:102A9000ADF8143005A9204600F0B1F80446B8B9E5
:102AA000BDF91400FDF722FE014601A8FFF734FE30
:102AB0002860204607B030BD4FF0FF34F9E74FF0F3
:102AC000FF34F6E74FF0FF34F3E74FF0FF34F0E761
:102AD0004FF0FF34EDE70000B8B108B503460A68CF
:102AE00002604868586088689860087B18730869B5
:102AF00018614869586189699961074919620749EC
:102B0000D9615B6222B1904708BD4FF0FF3070473A
:102B10004FF0FF30F8E700BF752700089327000843
:102B200010B544688068A04710BD10B5046880687F
:102B3000A04710BD30B583B004460D46012301AA5D
:102B40002021FFF7EDFF08B103B030BD9DF8043040
:102B500065F301038DF80430012301AA20212046EA
:102B6000FFF7E3FFF0E710B582B00C46012301AA9E
:102B70002021FFF7D5FF9DF8043003F00303032B5A
:102B800010D8DFE803F00206090C0023237002B01E
:102B900010BD01232370FAE702232370F7E7032314
:102BA0002370F4E704232370F1E730B583B00446C3
:102BB0000D46012301AA2021FFF7B2FF08B103B09F
:102BC00030BD9DF8043065F382038DF80430012395
:102BD00001AA20212046FFF7A8FFF0E710B582B038
:102BE0000C46022301AA2821FFF79AFF9DF8052031
:102BF0009DF8043003EB0223238002B010BD10B512
:102C000082B00C46022301AA2A21FFF789FF9DF812
:102C100005209DF8043003EB0223238002B010BD91
:102C200008B50A4601230F21FFF77AFF08BD30B52A
:102C300083B004460D46012301AA2021FFF770FF4F
:102C400008B103B030BD9DF8043065F3C7138DF8AB
:102C50000430012301AA20212046FFF766FFF0E798
:102C600030B583B00D4601230DF107023021FFF787
:102C700057FF04469DF80700FDF738FD4FF07C51E3
:102C8000FDF788FD2860204603B030BD30B583B025
:102C90000D4601230DF107023121FFF741FF0446E4
:102CA0009DF80700FDF722FD4FF07C51FDF772FD06
:102CB0002860204603B030BD70B582B004460E4691
:102CC00001230DF103023221FFF72AFF054610B15F
:102CD000284602B070BD012301AA35212046FFF726
:102CE0001FFF05469DF8043003F003039DF8030021
:102CF00000EB0320FDF7FAFC4FF07851FDF74AFD99
:102D00003060E5E770B582B004460E4601230DF150
:102D100003023321FFF704FF054610B1284602B035
:102D200070BD012301AA35212046FFF7F9FE0546B3
:102D30009DF80430C3F381039DF8030000EB0320EA
:102D4000FDF7D4FC4FF07851FDF724FD3060E5E746
:102D500030B583B00D46022301AA3621FFF7E0FE0D
:102D600004469DF805309DF8040000EB032000B2F6
:102D7000FDF7BCFC2860204603B030BD30B583B001
:102D80000D46022301AA3A21FFF7CAFE04469DF828
:102D900005309DF8040000EB032000B2FDF7A6FC0F
:102DA0002860204603B030BD30B583B00D46022305
:102DB00001AA3C21FFF7B4FE04469DF805309DF8BA
:102DC000040000EB032000B2FDF790FC28602046D1
:102DD00003B030BD30B583B00D46022301AA3E21B9
:102DE000FFF79EFE04469DF805309DF8040000EBB9
:102DF000032000B2FDF77AFC2860204603B030BD06
:102E00000020887001234B700B70C87000234B604A
:102E1000014B8B60CB6070470000484338B50546D6
:102E20000C464FF07E512046FDF75CFED0B91549A7
:102E30002046FDF757FED0B913492046FDF752FE54
:102E4000B8B912492046FDF74DFEA0B910492046F9
:102E5000FDF748FE88B90F492046FDF743FE70B1E3
:102E6000062300E0012385F82B30002038BD022323
:102E7000F9E70323F7E70423F5E70523F3E707233F
:102E8000F1E700BF000020410000C84100004842B7
:102E9000000096420000C84210B54469007BA0477C
:102EA00010BD10B50469007BA04710BD90F8293013
:102EB000012B0BD010B5044690F82B101C3000F0FD
:102EC0001EFA28B9012384F8293010BD002070476C
:102ED0004FF0FF30F9E790F82A30012B0BD010B5F6
:102EE000044690F82B101C3000F009FA28B9012391
:102EF00084F82A3010BD002070474FF0FF30F9E70A
:102F000038B5054600F11C041121204600F0F0FA06
:102F1000B8B91021204600F0F2F9A8B900212046E6
:102F200000F0CDFA98B90121204600F0CFF988B918
:102F30000121204600F0AAFA78B9032385F82B3046
:102F400038BD4FF0FF30FBE74FF0FF30F8E74FF0B0
:102F5000FF30F5E74FF0FF30F2E74FF0FF30EFE7DB
:102F600010B5044690F8283023B1012384F82830A6
:102F7000002010BDFFF7C4FF0028F6D04FF0FF304F
:102F8000F7E708B51C3000F07AFA00B908BD4FF039
:102F9000FF30FBE738B590F82930C3B1044690F80C
:102FA0002A301BB1002084F8290038BD00F11C052F
:102FB00000F12B01284600F0D7F950B9002128462E
:102FC00000F09DF90028EDD04FF0FF30EDE7002034
:102FD000EBE74FF0FF30E8E710B582B00C460DF19B
:102FE00007011C3000F0C0F928BB02469DF80730ED
:102FF000072B23D8DFE803F004090D101316191C62
:1030000000232360104602B010BD4FF07E532360B2
:10301000F8E70C4B2360F5E70B4B2360F2E70B4B13
:103020002360EFE70A4B2360ECE70A4B2360E9E7F4
:10303000094B2360E6E74FF0FF32E3E74FF0FF3242
:10304000E0E700BF000020410000C8410000484206
:10305000000096420000C8420000484308B5FFF750
:10306000BBFF08BD08B5FFF7B7FF08BD38B505467B
:103070000C464FF07E512046FDF734FDD0B91C4977
:103080002046FDF72FFD18BB1A492046FDF72AFD03
:1030900000BB19492046FDF725FDE8B91749204630
:1030A000FDF720FDD0B916492046FDF71BFDB8B14C
:1030B000062100E0012105F11C04204600F01FF963
:1030C00080B905F12B01204600F04EF968B938BDF2
:1030D0000221F0E70321EEE70421ECE70521EAE70E
:1030E0000721E8E74FF0FF30F1E74FF0FF30EEE760
:1030F000000020410000C841000048420000964204
:103100000000C84208B590F82930012B02D0FFF723
:1031100085FE08BDFFF7AAFFFBE708B590F82A3047
:10312000012B02D0FFF77AFE08BDFFF79FFFFBE7F8
:1031300038B590F82A30C3B1044690F829301BB155
:10314000002084F82A0038BD00F11C0500F12B0195
:10315000284600F009F950B90021284600F0CFF8C0
:103160000028EDD04FF0FF30EDE70020EBE74FF007
:10317000FF30E8E710B5044690F82830012B03D063
:10318000002084F8280010BDFFF704FF38B920465E
:10319000FFF7CEFF0028F3D04FF0FF30F3E74FF0FA
:1031A000FF30F0E730B583B00C460023019301A94E
:1031B0001C3000F03DF938B90546019800F074F86C
:1031C0002060284603B030BD4FF0FF35F9E730B539
:1031D00083B00C460023ADF8043001A91C3000F088
:1031E0003DF940B90546BDF9040000F065F82060DE
:1031F000284603B030BD4FF0FF35F9E700B583B086
:103200008DF8072001230DF107021C3000F047F86C
:1032100010B903B05DF804FB4FF0FF30F9E7000090
:10322000002829D010B504460B6803604A68426044
:103230008A6882600A7B02730A6902614A69426194
:103240008A698261114A0262114AC2614062B3B165
:103250009847B8B9A368022B00D010BD94F8283065
:10326000002BFAD1012210212046FFF7C7FF0028CA
:10327000F3D04FF0FF30F0E74FF0FF3070474FF0E2
:10328000FF30EAE74FF0FF30E7E700BF992E000874
:10329000A32E000810B544688068A04710BD10B583
:1032A00004688068A04710BD08B5FDF71BFA4FF011
:1032B0005651FDF76FFA08BD08B5FDF717FA024938
:1032C000FDF71CFB08BD00BF0000C84230B583B04D
:1032D00004460D46012301AA1021FFF7DBFF08B1C8
:1032E00003B030BD9DF8043065F341038DF8043020
:1032F000012301AA10212046FFF7D1FFF0E730B5E6
:1033000083B005460C46012301AA1021FFF7C2FF36
:1033100018B148B1A8B103B030BD01236A461121EC
:103320002846FFF7B7FFF4E79DF8043064F306136F
:103330008DF80430012301AA10212846FFF7AFFFC2
:10334000E8E7C4F300129DF8003062F34103C4F3D0
:10335000C00161F300038DF8003001236A4611219A
:103360002846FFF79CFFD6E730B583B004460D46EC
:10337000012301AA1021FFF78DFF10B140B103B066
:1033800030BD01236A4611212046FFF783FFF5E790
:1033900001236A4611212046FFF77CFF9DF800209B
:1033A000C2F3400102F00103DB0003EB01139DF8BF
:1033B0000420C2F302121344152B36D8DFE803F0C1
:1033C0000B1114171A1D2F320E353535353535359D
:1033D00035202326292C00232B70D0E708232B70BF
:1033E000CDE701232B70CAE702232B70C7E7032325
:1033F0002B70C4E704232B70C1E705232B70BEE7B5
:1034000011232B70BBE712232B70B8E713232B700B
:10341000B5E714232B70B2E715232B70AFE7062313
:103420002B70ACE707232B70A9E700232B70A6E7CE
:1034300010B582B00C46032301AA2821FFF72AFF0A
:103440009DF806209DF8053003EB02229DF804301C
:1034500003EB02231B02236002B010BD10B582B043
:103460000C46022301AA2B21FFF714FF9DF805202B
:103470009DF8043003EB0223238002B010BD08B591
:103480000A4601230F21FFF705FF08BD30B583B0C1
:1034900004460D46012301AA1121FFF7FBFE08B1E6
:1034A00003B030BD9DF8043065F304138DF804308B
:1034B000012301AA11212046FFF7F1FEF0E730B504
:1034C00083B004460D46012301AA1021FFF7E2FE56
:1034D00008B103B030BD9DF8043065F383038DF867
:1034E0000430012301AA10212046FFF7D8FEF0E79F
:1034F00030B583B005460C46012301AA0E21FFF723
:10350000C9FE08B103B030BD9DF8043064F3410337
:10351000C4F3001161F3C7138DF80430012301AA2D
:103520000E212846FFF7BBFEECE700002DE9F04333
:1035300089B01A4CE36C43F00203E364E36C03F0DC
:1035400002030193019B802303934FF01209CDF8EE
:1035500010904FF00108CDF8148003270697042639
:1035600007960F4D03A9284600F06CFF40230393F4
:10357000CDF81090CDF814800697079603A9284639
:1035800000F060FFA36D43F40013A365A36D03F483
:1035900000130293029B09B0BDE8F08300100240C3
:1035A0000004004810B5074A936D23F40013936597
:1035B000054C8021204601F023F84021204601F0EF
:1035C0001FF810BD00100240000400480B4B1B68A0
:1035D0007BB1013B094A13600BB10020704710B565
:1035E000074C2046FFF7DEFF204601F077FA10B9BE
:1035F00010BD002070476FF00700F9E7BC100020F5
:10360000C010002010B584B04FF480540294019390
:10361000009201230A460146084801F078FA10B9E1
:10362000002004B010BD054801F021FC042802D0A0
:103630006FF00300F5E76FF06500F2E7C0100020BF
:1036400010B584B04FF4805402940193009201238A
:103650000A460146084801F02FFB10B9002004B0CB
:1036600010BD054801F003FC042802D06FF00300F0
:10367000F5E76FF06500F2E7C010002008B500F034
:1036800097F808BD38B504460F4B03600F4B4360F5
:10369000002383600122C260036143618361C361CF
:1036A000036201F0BDF9054600B101250021204665
:1036B00001F0DFFB00B101250021204601F007FCED
:1036C00000B10125284638BD00540040DB3FB00062
:1036D000124B134A1A60134A1368591C11600BB13C
:1036E0000020704710B50D4801F0BEFB08B1002066
:1036F00010BD0A4C2046FFF719FF2046FFF7C2FF16
:1037000048B90021204601F0B4FB08B90020EFE7DA
:103710006FF00700ECE76FF00700E9E7C01000204A
:1037200000540040BC100020104B1B780BB9012046
:10373000704710B504464FF47A70B0FBF3F30C4AAF
:103740001068B0FBF3F000F0F3FB68B90F2C01D95F
:1037500001200AE0002221464FF0FF3000F0A6FBD6
:10376000044B1C60002000E0012010BD740000200C
:10377000000000207800002010B5032000F084FB3A
:103780000020FFF7D1FF10B10124204610BD0446F0
:10379000FEF708FEF9E70000034B1B78034A1168A7
:1037A0000B441360704700BF740000200C11002010
:1037B000014B1868704700BF0C11002038B5044653
:1037C000FFF7F6FF0546B4F1FF3F02D0044B1B782C
:1037D0001C44FFF7EDFF401BA042FAD338BD00BFE9
:1037E0007400002030B583B000230193002800F05E
:1037F000DC800446836D13B323689A6812F0005F7F
:1038000005D09A6822F0204222F03F029A60226896
:10381000936813F0805F1FD1936823F0104323F067
:103820003F0343F080539360614B1B689B09614ADF
:10383000A2FB03239B0901335B00019309E0FDF721
:1038400075FF0023E36584F85430D5E7019B013B05
:103850000193019B002BF9D12268936813F0805FDC
:1038600009D1A36D43F01003A365E36D43F0010399
:10387000E365012000E00020936813F0040300D00A
:103880000123A16D11F0100F40F08880002B40F053
:103890008580A36D23F4817343F00203A3659368CD
:1038A00013F0010F0BD1444B9B6813F0010F06D1AD
:1038B000636842498A6822F47C1213438B60627EFB
:1038C000636B43EA4233E2681343A268134394F8FC
:1038D000202043EA0243012A40D0A26A22B102F426
:1038E0007072E16A0A4313432168CD68344A2A4062
:1038F0001343CB6021688B6813F0040300D00123CD
:103900008A6812F0080200D00122C3B9BAB9E36C88
:10391000227E43EA823394F8302043EA4202CB68A5
:1039200023F4804323F006031343CB6094F838302C
:10393000012B18D02268136923F001031361236956
:10394000012B22D02268136B23F00F031363A36DA6
:1039500023F0030343F00103A36524E0626A013A04
:1039600043EA4243B9E721680B6923F4FF6323F07C
:103970000403E26B256C2A43656C2A43A56C2A4339
:10398000134343F001030B61D9E721680B6B23F06C
:103990000F03E269013A13430B63D8E7A36D43F0C9
:1039A0001003A365012003B030BD0120FBE700BF79
:1039B00000000020632D3E05000004500003045069
:1039C00007C0F0FFF0B482B00022019290F85420BA
:1039D000012A00F04E820346012280F8542002683A
:1039E000926812F0040F0AD0826D42F020028265C4
:1039F0000120002283F8542002B0F0BC70474A68CE
:103A0000052A09D8023A032A00F29780DFE802F07B
:103A1000028B8E910C224A601E684D680C6830360D
:103A20002A0A920002F00C02B05805F01F051F2769
:103A3000AF4020EA0700C4F38464AC402043B05098
:103A40001C68A26812F0040200D00122A06810F0E5
:103A5000080000D00120002A32D188BB8868B0F16C
:103A6000004F6DD00E681434720E920002F0040202
:103A7000A558C6F304560727B74025EA0705B04006
:103A80002843A0501868426922F0004242614C6904
:103A90001868C268C2F3C102520004FA02F20D694A
:103AA000042D62D00E68603050F82570B04C3C4058
:103AB00006F0F8463243144344F0004440F82540F1
:103AC0001868826812F0010F16D10A68CD68D0F824
:103AD000B040C2F3120624EA060405F01806A54D0C
:103AE000F5402A40C2F312022243C0F8B020C86851
:103AF000A14A904200F0A1800A68A0490A4200F061
:103B0000B4819F49896801F0E0749E48824200F0C8
:103B10005E819D48824200F081819C48824200F093
:103B20009181002065E712224A6075E718224A60F9
:103B300072E74FF480724A606EE706224A606BE7D4
:103B400008681434420E920002F00402A558C0F333
:103B50000450072606FA00F025EA0000A050186875
:103B6000426942F00042426191E7026E046EC4F382
:103B700084640A68C2F3120585BBC2F3846294426E
:103B800034D01C68626E606EC0F384600A68C2F351
:103B9000120585BBC2F38462904234D01C68A26EC9
:103BA000A06EC0F384600A68C2F3120585BBC2F33D
:103BB0008462904234D01C68E26EE06EC0F3846090
:103BC0000A68C2F3120585BBC2F3846290427FF497
:103BD00077AFE26E22F00042E26671E792FAA2F25B
:103BE00012B1B2FA82F2CAE72022C8E7026E22F0CE
:103BF00000420266C5E792FAA2F212B1B2FA82F26C
:103C0000CAE72022C8E7626E22F000426266C5E77A
:103C100092FAA2F212B1B2FA82F2CAE72022C8E7FF
:103C2000A26E22F00042A266C5E792FAA2F212B199
:103C3000B2FA82F2CAE72022C8E71D680A68C2F316
:103C40001206002E35D1900E013000F01F00092819
:103C50008CBF00200120002862D0002E38D1940EA5
:103C60000134A40604F0F844002E3DD1900E01303A
:103C700000F01F070120B8400443002E42D1920EED
:103C8000013202F01F0202EB4202120522438C684D
:103C90001435500E800000F004002E58C2F3045278
:103CA0000727974026EA070604FA02F232432A5011
:103CB00022E792FAA2F048B1B0FA80F0013000F0A9
:103CC0001F0009288CBF00200120C4E72020F5E751
:103CD00092FAA2F434B1B4FA84F40134A40604F0E4
:103CE000F844C1E72024F8E792FAA2F040B1B0FA14
:103CF00080F0013000F01F00012707FA00F0BBE759
:103D00002020F6E792FAA2F242B1B2FA82F2013230
:103D100002F01F0202EB42021205B7E72022F6E78B
:103D2000CEB9940E0134A40604F0F84486BB900E7C
:103D3000013000F01F070120B8400443B6BB900ECD
:103D4000013000F01F0000EB40021E3A120542F065
:103D5000007222439BE792FAA2F434B1B4FA84F4DD
:103D60000134A40604F0F844E0E72024F8E700BF9B
:103D700000F0FF03FFFF070000007F400000088005
:103D800000030450000052C7000084CB01000080F3
:103D900092FAA2F040B1B0FA80F0013000F01F00BA
:103DA000012707FA00F0C8E72020F6E792FAA2F20E
:103DB0005AB1B2FA82F0013000F01F0000EB40026D
:103DC0001E3A120542F00072C3E72020F3E711F417
:103DD000000F7FF49EAE1968274A914201D000205F
:103DE00007E644F400022548816821F0E0710A43A7
:103DF0008260234A126892092249A1FB02129209A9
:103E0000013202EB42029200019202E0019A013A71
:103E10000192019A002AF9D10020EAE511F0807F91
:103E20007FF47BAE1968144A914201D00020E0E58E
:103E300044F080721148816821F0E0710A43826089
:103E40000020D6E511F4800F11D119680A4A914279
:103E500001D00020CDE544F480020848816821F0BB
:103E6000E0710A4382600020C3E50020C1E5002024
:103E7000BFE50220C0E500BF00000450000304506D
:103E800000000020632D3E05074AD36823F4E06359
:103E90001B041B0C000200F4E060034343F0BF630B
:103EA00043F40033D360704700ED00E030B4174BAB
:103EB000DB68C3F30223C3F10704042C28BF0424E6
:103EC0001D1D062D18D9033B4FF0FF3505FA04F4EC
:103ED00021EA0401994005FA03F322EA0303194396
:103EE00000280BDB0901C9B200F1604000F5614018
:103EF00080F8001330BC70470023E5E700F00F00A6
:103F00000901C9B2024B1954F4E700BF00ED00E00B
:103F100014ED00E0002807DB00F01F024009012338
:103F20009340024A42F82030704700BF00E100E0B1
:103F30000138B0F1807F0AD2064B5860064AF02162
:103F400082F823100020986007221A607047012031
:103F5000704700BF10E000E000ED00E0124B984217
:103F600015D02033984214D02033984213D04033D8
:103F7000984212D02033984211D02033984210D06A
:103F80002033984201D0032070470720704700205B
:103F900070470120704702207047042070470520B9
:103FA00070470620704700BF00600140002878D0AD
:103FB00010B504460068FFF7D1FF3B4B53F82030A3
:103FC0000BB1012010BD2046FDF784FC374B1A6869
:103FD00001321A601B68012B45D02268136823F454
:103FE0007143136021680A68236960690343A0690B
:103FF000034313430B602268136823F00F0313601D
:1040000021680B68E269206A024313430B6022684F
:10401000936823F45F03936020688368626AA16AEF
:10402000013942EA0142134383602268536803F076
:104030000703536021684A68E06A236BDB0043EAA8
:10404000002313434B602268136843F0800313601E
:10405000012384F834302068FFF780FF124B43F8C7
:1040600020400020AEE7124B1A6822F080421A600E
:104070001A68A1680A431A601A6822F47F021A605B
:104080002379012B05D00A4A136843F000431360DB
:10409000A3E707490B68E268013A43EA02430B6071
:1040A000F1E70120704700BF1011002030110020FF
:1040B00000600140002800F08A8010B504460268C4
:1040C000454B9A425DD00023236301226264A264BF
:1040D00023652046FDF7B2FB2268136823F4002312
:1040E0001360237A012B54D02268136823F0005305
:1040F0001360637A012B52D02268136823F40013F3
:1041000013602268136823F4FE4323F0080313604E
:10411000E368022B49D0237C012B4CD02268136822
:1041200023F010031360637C012B4AD022681368CC
:1041300023F0200313602268536923F0634303F0E4
:10414000FF23536120684269E369216A013943EA28
:104150000143616A01390B4313434361636863633D
:10416000E368A363A369E363237C84F84030226897
:10417000136843F001031360012384F84C300020DE
:1041800010BD4368012B24D0C368012B9BD10120B3
:10419000F6E72268136843F000531360A9E722682A
:1041A000136843F400131360ABE722681368616976
:1041B0000B431360AFE72268136843F010031360EA
:1041C000B1E72268136843F020031360B3E70120CE
:1041D00070470120D4E700BF0061014090F84C30E7
:1041E000013BDBB2FD2B1ED810B40468236823F01A
:1041F000E06323F480232360012A0AD00468236843
:10420000090201F07F41194321600263002010BCC4
:10421000704704682368090201F07F410B4343F4AF
:1042200080232360F1E70120704700000368104AF3
:10423000934215D8426C22F0030202F1804202F54B
:1042400002328264DBB2083B0A4AA2FB03230A4A19
:10425000C264C3F30413012202FA03F30365704737
:10426000426C22F00301054A0A448264EAE700BF77
:1042700007040240CDCCCCCC800802401C08024090
:104280000379074A1A4492004265064A8265013B57
:1042900003F00303012202FA03F3C365704700BF72
:1042A0003F8200104009024000285BD010B5044650
:1042B00001682D4B99423DD82C4B0B442C4AA2FB54
:1042C00003231B099B0043642A4B0364022384F8E5
:1042D00025300A6822F4FF4222F07002A368E068E9
:1042E00003432069034360690343A0690343E06912
:1042F0000343206A034313430B602046FFF796FFF6
:10430000A368B3F5804F20D0A36C22791A60E36CC8
:10431000226D5A606368013B032B19D90023636542
:10432000A365E3650020E063012384F8253084F869
:10433000240010BD104B0B440D4AA2FB03231B09A4
:104340009B0043640D4B0364C0E700236360DBE71D
:104350002046FFF795FF636D00221A60A36DE26DA2
:104360005A60DFE70120704707040240F8FFFDBFF5
:10437000CDCCCCCC00000240F8FBFDBF00040240D5
:1043800038B5036C196804682568436C03F01C0396
:1043900004229A400A4215D015F0040F12D0236867
:1043A00013F0200F03D1236823F004032360436C30
:1043B00003F01C02016C042393404B60036B03B1B8
:1043C000984738BD02229A400A421CD015F0020FCD
:1043D00019D0236813F0200F06D1236823F00A03B5
:1043E0002360012380F82530436C03F01C02016C2C
:1043F000022393404B60002380F82430C36A002BD3
:10440000DFD09847DDE7082202FA03F30B42D8D049
:1044100015F0080FD5D0236823F00E032360436CFA
:1044200003F01C03016C012202FA03F34B60C26328
:1044300080F82520002380F82430436B002BC0D067
:104440009847BEE7F0B583B0002336E0072400E0CC
:104450000024B4403C430235654E46F82540654C87
:104460002568D44325EA02064F6817F4803F01D03F
:1044700042EA05065F4D2E606D6804EA05064F6846
:1044800017F4003F01D042EA05065A4D6E60AD6850
:1044900004EA05064F6817F4801F01D042EA0506BA
:1044A000544DAE60ED682C404E6816F4001F01D0EC
:1044B00042EA05044F4AD46001330A6832FA03F431
:1044C00000F0938001249C402240F5D04D686E1E80
:1044D000012E03D9112D01D0122D12D186685F0053
:1044E0000325BD4026EA0506CD68BD4035438560FD
:1044F000466826EA04064D68C5F300149C40344320
:104500004460C7685E000325B540EC4327EA050711
:104510008D68B5403D43C5604D68022D01D0122D18
:1045200013D1DF08083750F827E003F007054FEAFA
:10453000850C0F2505FA0CF52EEA050E0D6905FA16
:104540000CF545EA0E0540F82750056825404C68F3
:1045500004F00304B4402C4304604C6814F0805F02
:10456000AAD0254C256E45F001052566246E04F081
:1045700001040194019C9D08AE1C1D4C54F826704A
:1045800003F00304A6000F24B44027EA0407B0F1A7
:10459000904F3FF45DAF194CA0421AD004F58064EF
:1045A000A04218D004F58064A04216D004F58064BF
:1045B000A04214D004F58064A04212D004F58064B7
:1045C000A04210D004F58064A0423FF43FAF08241D
:1045D0003FE701243DE702243BE7032439E70424B5
:1045E00037E7052435E7062433E703B0F0BD00BF05
:1045F0000000014000040140001002400004004897
:10460000002331FA03F200F08B80F0B52DE007268D
:1046100000E0002606FA04F4AC4265D005685C00B0
:10462000032606FA04F42543056023FA06F5083547
:1046300050F8256003F007074FEA870C0F2707FAA9
:104640000CF726EA070640F82560856825EA040588
:104650008560456825EA02024260C26822EA0404D5
:10466000C460013331FA03F259D001229A4012EAB0
:10467000010EF6D04FEA930C0CF10205294C54F8C8
:10468000255003F00304A4000F2606FA04F73D406A
:10469000B0F1904FBDD0244EB04219D006F58066DF
:1046A000B04217D006F58066B04215D006F5806698
:1046B000B04213D006F58066B04211D006F5806690
:1046C000B0420FD006F58066B042A0D00826A1E720
:1046D00001269FE702269DE703269BE7042699E72C
:1046E000052697E7062695E7104C256825EA0E056E
:1046F0002560656825EA0E056560A56825EA0E0552
:10470000A560E56825EA0E05E560064D0CF102049A
:1047100055F8246026EA070645F824607EE7F0BDD8
:10472000704700BF00000140000400480004014041
:104730000369194201D001207047002070470AB177
:10474000816170478162704703689A6912F0020FB5
:1047500001D000229A6203689A6912F0010F03D116
:104760009A6942F001029A61704770B4039E05682D
:104770006868740D04F4806444F07F7444F4583421
:1047800044F47F7444F0030420EA0400C1F30901F7
:1047900041EA0241194331430143696070BC7047EB
:1047A000F8B505460E46174603689B6913F0100FCF
:1047B00001D10020F8BD2B689C6914F0200F17D19F
:1047C000B6F1FF3FF7D0FEF7F3FFC01BB04201D8B0
:1047D000002EF0D16B6C43F020036B64202385F82E
:1047E0004130002385F8423085F840300120E1E770
:1047F0001022DA612B682024DC612846FFF7A4FF31
:104800002A68536823F0FF7323F48B3323F4FF7378
:1048100023F0010353606B6C43F004036B6485F871
:104820004140002385F8423085F840300120C1E73F
:1048300070B504460D46164623689B6913F0020FB7
:104840001DD1324629462046FFF7AAFFC8B9B5F167
:10485000FF3FF1D0FEF7ACFF801BA84201D8002D2E
:10486000EAD1636C43F020036364202384F8413071
:10487000002384F8423084F84030012000E000201A
:1048800070BD0120FCE72DE9F04106468846174639
:104890001D463468A46938EA04030CBF01240024CF
:1048A000BC4218D1B5F1FF3FF3D0FEF781FF069B64
:1048B000C01AA84201D8002DEBD1736C43F020033D
:1048C0007364202386F84130002386F8423086F84E
:1048D0004030012000E00020BDE8F0812DE9F041EA
:1048E00082B0044690461D46089E099F194B0093CE
:1048F0004FF08073EAB2FFF738FF3A463146204660
:10490000FFF796FFF8B9012D0ED123685FFA88F200
:104910009A6200973346002280212046FFF7B3FFBA
:10492000A8B902B0BDE8F08123684FEA18229A6264
:104930003A4631462046FFF77BFF30B923685FFADD
:1049400088F29A62E5E70120EBE70120E9E7012020
:10495000E7E700BF002000802DE9F04182B0044667
:1049600090461D46089E099F184B00930023EAB20B
:10497000FFF7FBFE3A4631462046FFF759FFF8B9EC
:10498000012D0ED123685FFA88F29A6200973346B0
:10499000002240212046FFF776FFA8B902B0BDE80B
:1049A000F08123684FEA18229A623A46314620463F
:1049B000FFF73EFF30B923685FFA88F29A62E5E7B5
:1049C0000120EBE70120E9E70120E7E70020008074
:1049D00070B505460C4616462B689B6913F0200FF0
:1049E0001AD1324621462846FFF7DAFEB0B9FEF763
:1049F000DFFE801BA04201D8002CEDD16B6C43F090
:104A000020036B64202385F84130002385F8423071
:104A100085F84030012070BD0020FCE70120FAE756
:104A2000002859D010B5044690F84130002B43D0EF
:104A3000242384F841302268136823F001031360B3
:104A40006368226823F0706313612268936823F41B
:104A500000439360E368012B33D0A368226843F4DA
:104A600004439360E368022B31D02268536843F01B
:104A7000007343F4004353602268D36823F4004377
:104A8000D360236962691343A169226843EA012361
:104A9000D360E369216A22680B43136022681368BC
:104AA00043F00103136000206064202384F8413048
:104AB000206384F8420010BD80F84030FDF7A0F874
:104AC000B6E7A368226843F400439360CAE723680B
:104AD0004FF400625A60C8E701207047A8B110B5D2
:104AE0000446242380F841300268136823F0010350
:104AF0001360FDF7BFF80020606484F84100206374
:104B000084F8420084F8400010BD012070472DE970
:104B1000F04F83B00E46BDF834A00E9D90F84110C2
:104B2000C9B2202940F0BB800446904699460C9BB0
:104B3000CBB1BAF1000F16D090F84030012B00F045
:104B4000B2804FF0010B80F840B0FEF731FE07460F
:104B5000009019235A464FF400412046FFF793FE78
:104B600030B101209CE04FF400736364012097E0B2
:104B7000212384F84130402384F8423000236364C9
:104B80000C9A6262A4F82AA06363019700954B46D1
:104B9000424631462046FFF7A1FE70B9638D9BB2B5
:104BA000FF2B0FD9FF222285002300934FF0807343
:104BB00031462046FFF7D9FD21E0002384F840303C
:104BC00058466DE0628D92B22285002300934FF02B
:104BD0000073D2B231462046FFF7C7FD0FE0628D69
:104BE00092B22285002300934FF00073D2B2314677
:104BF0002046FFF7BAFD638D9BB2002B33D03A46B7
:104C000029462046FFF714FE00284ED1626A236829
:104C100012789A62636A01336362638D9BB2013BCF
:104C20009BB26385238D013B9BB22385628D92B23B
:104C3000002AE0D0002BDED100972B4600228021F5
:104C40002046FFF720FE90BB638D9BB2FF2BC6D999
:104C5000FF222285002300934FF0807331462046C7
:104C6000FFF783FDC7E73A4629462046FFF7B0FE27
:104C7000F8B923682022DA6121684B6823F0FF73BA
:104C800023F48B3323F4FF7323F001034B6084F888
:104C90004120002384F8423084F8403000E00220B4
:104CA00003B0BDE8F08F0220FAE70120F8E7012009
:104CB000F6E70120F4E700002DE9F04F83B00E463F
:104CC000BDF834A00E9D90F84110C9B2202940F0E3
:104CD000BC800446904699460C9BCBB1BAF1000FBC
:104CE00016D090F84030012B00F0B3804FF0010B4C
:104CF00080F840B0FEF75CFD0746009019235A4645
:104D00004FF400412046FFF7BEFD30B101209DE089
:104D10004FF400736364012098E0222384F841304B
:104D2000402384F84230002363640C9A6262A4F842
:104D30002AA06363019700954B46424631462046C0
:104D4000FFF70AFE70B9638D9BB2FF2B0FD9FF22CC
:104D50002285444B00934FF0807331462046FFF785
:104D600004FD21E0002384F8403058466EE0628D57
:104D700092B222853B4B00934FF00073D2B2314682
:104D80002046FFF7F2FC0FE0628D92B222850023ED
:104D900000934FF00073D2B231462046FFF7E5FC96
:104DA000638D9BB2002B34D000972B460022042148
:104DB0002046FFF768FD00284DD123685A6A636AD0
:104DC0001A70636A01336362228D013A92B22285BE
:104DD000638D9BB2013B9BB26385638D9BB2002BBD
:104DE000DED0002ADCD100972B4680212046FFF739
:104DF0004AFD90BB638D9BB2FF2BC5D9FF22228554
:104E0000002300934FF0807331462046FFF7ADFC3E
:104E1000C6E73A4629462046FFF7DAFDF8B9236887
:104E20002022DA6121684B6823F0FF7323F48B336F
:104E300023F4FF7323F001034B6084F84120002327
:104E400084F8423084F8403000E0022003B0BDE82E
:104E5000F08F0220FAE70120F8E70120F6E70120B1
:104E6000F4E700BF0024008090F841007047406CD8
:104E7000704790F84130DBB2202B24D190F84030BD
:104E8000012B22D0012380F84030242380F84130C8
:104E90000268136823F0010313600268136823F4A7
:104EA0008053136002681368194311600268136825
:104EB00043F001031360202380F84130002380F881
:104EC000403018467047022070470220704790F823
:104ED0004130DBB2202B22D190F84030012B20D082
:104EE000012380F84030242380F8413002681368A1
:104EF00023F0010313600268136823F4706343EA2C
:104F0000012111600268136843F00103136020233C
:104F100080F84130002380F8403018467047022066
:104F20007047022070472DE9F047D0F80080C1EBB0
:104F3000C10300EB83035A6D1B6D9A4253D8074699
:104F40000C46C1469B1AC1EBC10200EB8202526CB7
:104F50009A4200D31A4602F1030A4FEA9A0A13E072
:104F600006F1030A4FEA9A0AC4EBC40507EB85056C
:104F7000B3B2E2B2A96C404605F080FBAB6C33449F
:104F8000AB646B6D1E446E6509EB441303F510634F
:104F90009B699BB2534512D3C4EBC40207EB820258
:104FA000516D136D99420AD24BB15B1AC4EBC40226
:104FB00007EB8202566C9E42D2D31E46D0E7C4EB6A
:104FC000C40007EB80073A6D7B6D9A420ED804F05F
:104FD0000F040123A340D8F8344824EA0304C8F896
:104FE0003448002000E00120BDE8F0870020FBE706
:104FF000F0B58BB0002800F093800546046890F867
:10500000BD332BB3032385F8BD33E36B13F4807FEB
:1050100001D100232B61286805F0F2F82C4654F8E2
:10502000107B6E460FCC0FC60FCC0FC694E8030062
:1050300086E803002B1D0ECB384605F04DF80446DC
:1050400058B1022385F8BD33012420460BB0F0BDD2
:1050500080F8BC3308F0B2FBD4E70021286805F0E3
:10506000D5F8234616E0C3EBC30205EB820201210B
:1050700082F83D1082F83C30A2F84230002182F8DC
:105080003F1051649164C3EBC30205EB82021165CA
:105090000133DBB269688B42E5D316E0C4EBC4038D
:1050A00005EB8303002283F8FD2183F8FC4183F89C
:1050B000FF21C3F80422C3F80822C4EBC40305EBA4
:1050C0008303C3F810220134E4B2A142E6D82C468F
:1050D00054F8107B6E460FCC0FC60FCC0FC694E869
:1050E000030086E803002B1D0ECB384605F0D4F8EC
:1050F000044660B9002385F83830012385F8BD33B4
:105100006B6A012B08D0286805F027FC9DE7022375
:1051100085F8BD33012498E7284600F03AFCF2E711
:10512000012492E7026890F8BC33012B16D010B529
:105130000446012380F8BC33836A012B09D0206820
:1051400005F058F8206805F0FAFB002084F8BC034D
:1051500010BD936B43F480339363F0E702207047F4
:1051600038B503681C6C03EB411303F530639D688D
:105170000B4A94420FD115F4004F03D04FF4004274
:105180009A600BE015F0200F01D020229A60C9B27E
:1051900008F06EFB02E0C9B208F06AFB002038BDDF
:1051A0000A31544F10B503681C6C03EB4113D3F85C
:1051B000081B074A944207D903F5306311F4004FE6
:1051C00002D04FF400429A6008F04AFB002010BD64
:1051D0000A30544F2DE9F04F83B004460568284645
:1051E00005F0F9FB10B103B0BDE8F08F2F4606467D
:1051F000206805F0C0FB0028F5D0206805F0BBFB57
:1052000010F0020F04D02268536903F002035361C7
:10521000206805F0B0FB10F0100F15D022689369DC
:1052200023F010039361D5F8208008F00F09C8F32C
:105230004343022B00F08580062B00F0AA802268F1
:10524000936943F010039361206805F094FB10F418
:10525000002F40F0B080206805F08DFB10F4802F07
:1052600040F0F480206805F086FB0028C0F24681FB
:10527000206805F080FB10F4006F0AD0D5F80838DC
:1052800013F0010F40F054812268536903F4006366
:105290005361206805F06FFB10F0006F15D0226895
:1052A000536903F00063536194F8F433002B40F02A
:1052B0004381012184F8F41323685B6DC3F38303F6
:1052C000C4F8F833204608F019FC206805F053FBB9
:1052D00010F4805F40F03481206805F04CFB10F43E
:1052E000005F40F09281206805F045FB10F0080F48
:1052F00040F0A381206805F03EFB10F4801F40F0D1
:10530000A581206805F037FB10F4001F40F0A8814C
:10531000206805F030FB10F0804F40F0AB81206832
:1053200005F029FB10F0040F3FF45DAF23685D68C2
:1053300015F0040F40F0A781226853682B43536097
:1053400051E747F6F07318EA030F3FF478AF4FEADE
:10535000181B4FEAC9030193C9EBC90A04EB8A0A77
:10536000C8F30A12DAF80812284605F06DFACBF3F2
:105370000A0BDAF808325B44CAF80832019BA3EB47
:10538000090304EB8303D3F814325B44CAF81432E4
:1053900055E7082204F57171284605F055FAC8F35F
:1053A0000A18C9EBC90204EB8202D2F81432434452
:1053B000C2F8143243E7206805F0E1FA8046B146AE
:1053C00017E007EB49130122C3F8082B4946204692
:1053D000FFF7C6FE1DE007EB49130822C3F8082BB0
:1053E00049462046FFF7DEFE16E009F101094FEAC3
:1053F0005808B8F1000F3FF42EAF18F0010FF4D0A9
:105400005FFA89F1206805F0CAFA824610F0010FB0
:10541000D7D11AF0080FDED11AF0100F04D007EB25
:1054200049131022C3F8082B1AF0200F04D007EB01
:1054300049132022C3F8082B1AF4005FD5D007EBDC
:1054400049134FF40052C3F8082BCEE7206805F04B
:105450009EFA8046B1461AE009F00F03012101FAD5
:1054600003F2D7F8343823EA0203C7F8343807EBDD
:105470004913C3F808195946204608F005FA17E001
:105480001AF0800F35D109F101094FEA5808B8F137
:10549000000F3FF4E7AE18F0010FF4D05FFA89FB7C
:1054A0005946206805F084FA824610F0010FD3D1E6
:1054B0001AF0080F04D007EB49130822C3F8082993
:1054C0001AF0100F04D007EB49131022C3F8082973
:1054D0001AF0400F04D007EB49134022C3F8082903
:1054E0001AF0020FCCD007EB49130222C3F80829A7
:1054F000C6E749462046FFF716FDC4E7D5F804384D
:1055000023F00103C5F8043894F8F433012B08D0D4
:10551000204608F0F5F92268536903F0004353610F
:10552000A6E6002184F8F413204608F0E7FAF2E733
:10553000204608F0CDF9A7E6204608F0C9F9C4E6F0
:1055400005F50068D8F8043023F00103C8F80430EA
:105550001021206804F072FE20E007EB46134FF69E
:105560007F31C3F80819D3F8002922F40012C3F8D8
:105570000029D3F8002942F00062C3F80029C3F8DB
:10558000081BD3F8002B22F40012C3F8002BD3F829
:10559000002B42F00062C3F8002B01366368B3426F
:1055A000DBD8D8F81C3043F00113C8F81C30236B4B
:1055B000E3B1D8F8843043F00B03C8F88430D8F84E
:1055C000443043F00B03C8F84430D5F8003823F4D6
:1055D000FE63C5F8003804F57171206805F010FA13
:1055E0002268536903F48053536175E6D8F8143088
:1055F00043F4005343F02B03C8F81430D8F81030AC
:1056000043F00B03C8F81030DFE7206805F0E7F936
:10561000206804F0F7FEE060256800F091FF014685
:10562000227B284604F074FD204608F03EF92268EB
:10563000536903F40053536155E6204608F02FF9EF
:105640002268536903F00803536153E600212046A2
:1056500008F076F92268536903F48013536150E629
:105660000021204608F066F92268536903F400130C
:1056700053614DE6204608F069F92268536903F04A
:10568000804353614BE6204608F066F954E690F8F3
:10569000BC33012B0DD010B50446012380F8BC3378
:1056A00080F83810006805F03AF9002084F8BC034F
:1056B00010BD02207047F8B507460C4611F0800F68
:1056C00027D101F00F05C5EBC506B60006F5FC763F
:1056D0000644311DC5EBC50500EB8505002085F8A6
:1056E000FD0104F00F040C708A60CB704A7802B19F
:1056F000CC80022B1DD097F8BC33012B1CD001238A
:1057000087F8BC33386804F08BFE002087F8BC03B0
:10571000F8BD01F00F00C0EBC001890038313944F9
:105720000431C0EBC00007EB8000012580F83D503C
:10573000D7E700230B71DEE70220E9E710B5044646
:105740000A4611F0800F20D101F00F00C0EBC0031A
:105750009B0003F5FC732344191DC0EBC00004EB50
:105760008000002380F8FD3102F00F020A7094F8E7
:10577000BC33012B19D0012384F8BC33206804F01A
:1057800099FE002084F8BC0310BD01F00F00C0EBAF
:10579000C0039B0038332344191DC0EBC00004EB49
:1057A0008000012380F83D30DEE70220ECE738B5C9
:1057B00001F00F04C4EBC401890001F5FC71014440
:1057C0000431C4EBC40500EB8505C5F80822C5F813
:1057D00010320023C5F8143285F8FD3185F8FC41FC
:1057E00024B9006804F0D4FE002038BD006804F03D
:1057F00057FFF9E701F00F01C1EBC10100EB810197
:10580000D1F81402704738B501F00F04C4EBC4019D
:105810008900383101440431C4EBC40500EB85052F
:10582000AA642B6500236B65012385F83D3085F85C
:105830003C4024B9006804F0ABFE002038BD00688D
:1058400004F02EFFF9E738B501F00F0542689542E4
:1058500038D804460B4611F0800F1FD1C1EBC101AF
:10586000890001F5FC7101440431C3EBC30300EB73
:105870008303002283F8FD2101238B700D7094F8BF
:10588000BC33012B20D0012384F8BC33206804F002
:10589000EBFF8DB1002084F8BC0338BDC5EBC5011A
:1058A0008900383101440431C5EBC50300EB8303A3
:1058B000012283F83D20DFE704F57171206805F0CF
:1058C0009FF8E7E70120E8E70220E6E701F00F0391
:1058D0004268934231D810B5044611F0800F1ED1B2
:1058E000C3EBC301890001F5FC7101440431C3EB32
:1058F000C30200EB8202002082F8FD0100228A70C0
:105900000B7094F8BC33012B19D0012384F8BC33FD
:10591000206804F0D6FF002084F8BC0310BDC3EB60
:10592000C3018900383101440431C3EBC30200EBE9
:105930008202012082F83D00E0E70120704702204A
:10594000ECE730B40468606A19B940EA0240A0622A
:1059500018E00D46A36A00EB13400023691E8B423A
:1059600009D203F1400104EB8101496800EB1140C9
:105970000133DBB2F2E740EA024005F13F0104EBFC
:1059800081014860002030BC7047036859620020E4
:105990007047034602680121C0F8FC13002083F819
:1059A000F403936943F000639361536D43F08053B4
:1059B00043F0030353657047024A136843F480734E
:1059C0001360704700700040074B186800F4C06017
:1059D000B0F5806F04D0D3F8800010F4807000D14F
:1059E00070474FF40070FBE700700040002836D18C
:1059F0003E4B1B6803F4C063B3F5806F08D03B4A8D
:105A0000D2F8803023F48073C2F8803000207047D1
:105A1000364AD2F8803023F48073C2F8803013689D
:105A200023F4C06343F400731360314B1A683223CC
:105A300003FB02F32F4AA2FB03239B0C013300E07C
:105A4000013B2A4A526912F4806F01D0002BF7D132
:105A5000264B5B6913F4806F44D100207047B0F58A
:105A6000007F08D0214A136823F4C06343F48063A5
:105A70001360002070471D4B1B6803F4C063B3F52F
:105A8000806F08D0194AD2F8803043F48073C2F88E
:105A9000803000207047154AD2F8803043F480737C
:105AA000C2F88030136823F4C06343F400731360BA
:105AB0000F4B1A68322303FB02F30E4AA2FB0323A7
:105AC0009B0C013300E0013B084A526912F4806FDD
:105AD00001D0002BF7D1054B5B6913F4806F03D124
